{
  "_format": "hh-sol-artifact-1",
  "contractName": "DAO",
  "sourceName": "contracts/DAO.sol",
  "abi": [
    {
      "inputs": [
        {
          "internalType": "address payable",
          "name": "_poolAddress",
          "type": "address"
        }
      ],
      "stateMutability": "nonpayable",
      "type": "constructor"
    },
    {
      "anonymous": false,
      "inputs": [
        {
          "indexed": true,
          "internalType": "uint256",
          "name": "claimId",
          "type": "uint256"
        },
        {
          "indexed": true,
          "internalType": "address",
          "name": "appellant",
          "type": "address"
        },
        {
          "indexed": false,
          "internalType": "uint256",
          "name": "appealFee",
          "type": "uint256"
        }
      ],
      "name": "AppealSubmitted",
      "type": "event"
    },
    {
      "anonymous": false,
      "inputs": [
        {
          "indexed": true,
          "internalType": "uint256",
          "name": "claimId",
          "type": "uint256"
        },
        {
          "indexed": false,
          "internalType": "string",
          "name": "evidenceURI",
          "type": "string"
        },
        {
          "indexed": false,
          "internalType": "uint256",
          "name": "aiConfidence",
          "type": "uint256"
        },
        {
          "indexed": false,
          "internalType": "uint256",
          "name": "timestamp",
          "type": "uint256"
        },
        {
          "indexed": false,
          "internalType": "bool",
          "name": "isAppeal",
          "type": "bool"
        }
      ],
      "name": "ProposalCreated",
      "type": "event"
    },
    {
      "anonymous": false,
      "inputs": [
        {
          "indexed": true,
          "internalType": "uint256",
          "name": "claimId",
          "type": "uint256"
        },
        {
          "indexed": false,
          "internalType": "bool",
          "name": "approved",
          "type": "bool"
        },
        {
          "indexed": false,
          "internalType": "uint256",
          "name": "finalYesVotes",
          "type": "uint256"
        },
        {
          "indexed": false,
          "internalType": "uint256",
          "name": "finalNoVotes",
          "type": "uint256"
        }
      ],
      "name": "ProposalExecuted",
      "type": "event"
    },
    {
      "anonymous": false,
      "inputs": [
        {
          "indexed": true,
          "internalType": "uint256",
          "name": "claimId",
          "type": "uint256"
        },
        {
          "indexed": true,
          "internalType": "address",
          "name": "voter",
          "type": "address"
        },
        {
          "indexed": false,
          "internalType": "bool",
          "name": "vote",
          "type": "bool"
        },
        {
          "indexed": false,
          "internalType": "uint256",
          "name": "votingPower",
          "type": "uint256"
        }
      ],
      "name": "VoteSubmitted",
      "type": "event"
    },
    {
      "inputs": [],
      "name": "AI_APPROVAL_THRESHOLD",
      "outputs": [
        {
          "internalType": "uint256",
          "name": "",
          "type": "uint256"
        }
      ],
      "stateMutability": "view",
      "type": "function"
    },
    {
      "inputs": [],
      "name": "QUORUM_PERCENTAGE",
      "outputs": [
        {
          "internalType": "uint256",
          "name": "",
          "type": "uint256"
        }
      ],
      "stateMutability": "view",
      "type": "function"
    },
    {
      "inputs": [],
      "name": "TIMELOCK_DURATION",
      "outputs": [
        {
          "internalType": "uint256",
          "name": "",
          "type": "uint256"
        }
      ],
      "stateMutability": "view",
      "type": "function"
    },
    {
      "inputs": [],
      "name": "VOTING_DURATION",
      "outputs": [
        {
          "internalType": "uint256",
          "name": "",
          "type": "uint256"
        }
      ],
      "stateMutability": "view",
      "type": "function"
    },
    {
      "inputs": [],
      "name": "activeProposalCount",
      "outputs": [
        {
          "internalType": "uint256",
          "name": "",
          "type": "uint256"
        }
      ],
      "stateMutability": "view",
      "type": "function"
    },
    {
      "inputs": [],
      "name": "appealFee",
      "outputs": [
        {
          "internalType": "uint256",
          "name": "",
          "type": "uint256"
        }
      ],
      "stateMutability": "view",
      "type": "function"
    },
    {
      "inputs": [
        {
          "internalType": "address",
          "name": "user",
          "type": "address"
        }
      ],
      "name": "calculateVotingPower",
      "outputs": [
        {
          "internalType": "uint256",
          "name": "",
          "type": "uint256"
        }
      ],
      "stateMutability": "view",
      "type": "function"
    },
    {
      "inputs": [
        {
          "internalType": "uint256",
          "name": "claimId",
          "type": "uint256"
        },
        {
          "internalType": "string",
          "name": "evidenceURI",
          "type": "string"
        },
        {
          "internalType": "uint256",
          "name": "aiConfidence",
          "type": "uint256"
        }
      ],
      "name": "createProposal",
      "outputs": [],
      "stateMutability": "nonpayable",
      "type": "function"
    },
    {
      "inputs": [
        {
          "internalType": "uint256",
          "name": "claimId",
          "type": "uint256"
        }
      ],
      "name": "executeProposal",
      "outputs": [],
      "stateMutability": "nonpayable",
      "type": "function"
    },
    {
      "inputs": [],
      "name": "pool",
      "outputs": [
        {
          "internalType": "contract Pool",
          "name": "",
          "type": "address"
        }
      ],
      "stateMutability": "view",
      "type": "function"
    },
    {
      "inputs": [
        {
          "internalType": "uint256",
          "name": "",
          "type": "uint256"
        }
      ],
      "name": "proposals",
      "outputs": [
        {
          "internalType": "int256",
          "name": "totalVotes",
          "type": "int256"
        },
        {
          "internalType": "bool",
          "name": "exists",
          "type": "bool"
        },
        {
          "internalType": "uint256",
          "name": "aiConfidence",
          "type": "uint256"
        },
        {
          "internalType": "string",
          "name": "evidenceURI",
          "type": "string"
        },
        {
          "internalType": "uint256",
          "name": "yesVotes",
          "type": "uint256"
        },
        {
          "internalType": "uint256",
          "name": "noVotes",
          "type": "uint256"
        },
        {
          "internalType": "uint256",
          "name": "timestamp",
          "type": "uint256"
        },
        {
          "internalType": "uint256",
          "name": "timelockEnd",
          "type": "uint256"
        },
        {
          "internalType": "bool",
          "name": "isAppealProposal",
          "type": "bool"
        }
      ],
      "stateMutability": "view",
      "type": "function"
    },
    {
      "inputs": [
        {
          "internalType": "uint256",
          "name": "newFee",
          "type": "uint256"
        }
      ],
      "name": "setAppealFee",
      "outputs": [],
      "stateMutability": "nonpayable",
      "type": "function"
    },
    {
      "inputs": [
        {
          "internalType": "uint256",
          "name": "claimId",
          "type": "uint256"
        },
        {
          "internalType": "string",
          "name": "evidenceURI",
          "type": "string"
        },
        {
          "internalType": "uint256",
          "name": "aiConfidence",
          "type": "uint256"
        }
      ],
      "name": "submitAppeal",
      "outputs": [],
      "stateMutability": "payable",
      "type": "function"
    },
    {
      "inputs": [
        {
          "internalType": "uint256",
          "name": "claimId",
          "type": "uint256"
        },
        {
          "internalType": "bool",
          "name": "vote",
          "type": "bool"
        }
      ],
      "name": "submitVote",
      "outputs": [],
      "stateMutability": "nonpayable",
      "type": "function"
    },
    {
      "stateMutability": "payable",
      "type": "receive"
    }
  ],
  "bytecode": "0x60a060405267016345785d8a00006002553480156200001d57600080fd5b506040516200250338038062002503833981810160405281019062000043919062000098565b8073ffffffffffffffffffffffffffffffffffffffff1660808173ffffffffffffffffffffffffffffffffffffffff1660601b815250505062000112565b6000815190506200009281620000f8565b92915050565b600060208284031215620000ab57600080fd5b6000620000bb8482850162000081565b91505092915050565b6000620000d182620000d8565b9050919050565b600073ffffffffffffffffffffffffffffffffffffffff82169050919050565b6200010381620000c4565b81146200010f57600080fd5b50565b60805160601c61237e6200018560003960008181610532015281816105c2015281816106ae015281816107c0015281816109d801528181610a8501528181610b4501528181610be301528181610c810152818161102c015281816110d1015281816112fe015261139c015261237e6000f3fe6080604052600436106100e15760003560e01c8063612c56fa1161007f5780637984e6b5116100595780637984e6b5146102b2578063a438d208146102dd578063a891bfa914610308578063ee8a7c1514610331576100e8565b8063612c56fa1461023557806376e430991461025e57806379110a4714610289576100e8565b806330b0c6e5116100bb57806330b0c6e5146101865780634623c81e146101a257806356558d62146101cd57806359d177e6146101f8576100e8565b8063013cf08b146100ed5780630d61b5191461013257806316f0115b1461015b576100e8565b366100e857005b600080fd5b3480156100f957600080fd5b50610114600480360381019061010f91906115f0565b61035c565b60405161012999989796959493929190611bcd565b60405180910390f35b34801561013e57600080fd5b50610159600480360381019061015491906115f0565b61044c565b005b34801561016757600080fd5b506101706106ac565b60405161017d9190611bb2565b60405180910390f35b6101a0600480360381019061019b919061167e565b6106d0565b005b3480156101ae57600080fd5b506101b76109c7565b6040516101c49190611e2d565b60405180910390f35b3480156101d957600080fd5b506101e26109ce565b6040516101ef9190611e2d565b60405180910390f35b34801561020457600080fd5b5061021f600480360381019061021a91906115c7565b6109d3565b60405161022c9190611e2d565b60405180910390f35b34801561024157600080fd5b5061025c60048036038101906102579190611642565b610d6d565b005b34801561026a57600080fd5b50610273611024565b6040516102809190611e2d565b60405180910390f35b34801561029557600080fd5b506102b060048036038101906102ab91906115f0565b61102a565b005b3480156102be57600080fd5b506102c76110c2565b6040516102d49190611e2d565b60405180910390f35b3480156102e957600080fd5b506102f26110c8565b6040516102ff9190611e2d565b60405180910390f35b34801561031457600080fd5b5061032f600480360381019061032a919061167e565b6110cf565b005b34801561033d57600080fd5b506103466112f4565b6040516103539190611e2d565b60405180910390f35b60016020528060005260406000206000915090508060000154908060010160009054906101000a900460ff169080600201549080600301805461039e906121bb565b80601f01602080910402602001604051908101604052809291908181526020018280546103ca906121bb565b80156104175780601f106103ec57610100808354040283529160200191610417565b820191906000526020600020905b8154815290600101906020018083116103fa57829003601f168201915b5050505050908060040154908060050154908060060154908060070154908060080160009054906101000a900460ff16905089565b60006001600083815260200190815260200160002090508060010160009054906101000a900460ff166104b4576040517f08c379a00000000000000000000000000000000000000000000000000000000081526004016104ab90611d6d565b60405180910390fd5b80600701544210156104fb576040517f08c379a00000000000000000000000000000000000000000000000000000000081526004016104f290611dad565b60405180910390fd5b60008082600001541380156105285750610527826005015483600401546105229190611f64565b6112f9565b5b905080156105c0577f000000000000000000000000000000000000000000000000000000000000000073ffffffffffffffffffffffffffffffffffffffff1663522ce59d846040518263ffffffff1660e01b81526004016105899190611e2d565b600060405180830381600087803b1580156105a357600080fd5b505af11580156105b7573d6000803e3d6000fd5b5050505061064c565b7f000000000000000000000000000000000000000000000000000000000000000073ffffffffffffffffffffffffffffffffffffffff1663b39e2519846040518263ffffffff1660e01b81526004016106199190611e2d565b600060405180830381600087803b15801561063357600080fd5b505af1158015610647573d6000803e3d6000fd5b505050505b60008081548092919061065e90612191565b9190505550827f51043a71347ff0cc0f4812318640889c286669511ad84c970c108141a05164fa828460040154856005015460405161069f93929190611b7b565b60405180910390a2505050565b7f000000000000000000000000000000000000000000000000000000000000000081565b6001600084815260200190815260200160002060010160009054906101000a900460ff1615610734576040517f08c379a000000000000000000000000000000000000000000000000000000000815260040161072b90611d2d565b60405180910390fd5b603c8110610777576040517f08c379a000000000000000000000000000000000000000000000000000000000815260040161076e90611cad565b60405180910390fd5b6002543410156107bc576040517f08c379a00000000000000000000000000000000000000000000000000000000081526004016107b390611e0d565b60405180910390fd5b60007f000000000000000000000000000000000000000000000000000000000000000073ffffffffffffffffffffffffffffffffffffffff163460405161080290611b22565b60006040518083038185875af1925050503d806000811461083f576040519150601f19603f3d011682016040523d82523d6000602084013e610844565b606091505b5050905080610888576040517f08c379a000000000000000000000000000000000000000000000000000000000815260040161087f90611d4d565b60405180910390fd5b60008081548092919061089a906121ed565b9190505550600060016000868152602001908152602001600020905060018160010160006101000a81548160ff021916908315150217905550828160020181905550838160030190805190602001906108f4929190611468565b504281600601819055506202a3004261090d9190611f64565b816007018190555060018160080160006101000a81548160ff0219169083151502179055503373ffffffffffffffffffffffffffffffffffffffff16857fca82e2bfbb671f34dbdd88f22489cebbb8cea41cae8689e8f22c2e8d9aed792d346040516109799190611e2d565b60405180910390a3847f118e52e9c0377ebc5b1844997fda308b0ab28d0c8d702050e006fcdd56ffdd2c85854260016040516109b89493929190611c61565b60405180910390a25050505050565b6202a30081565b603c81565b6000807f000000000000000000000000000000000000000000000000000000000000000073ffffffffffffffffffffffffffffffffffffffff1663a87430ba846040518263ffffffff1660e01b8152600401610a2f9190611b37565b604080518083038186803b158015610a4657600080fd5b505afa158015610a5a573d6000803e3d6000fd5b505050506040513d601f19601f82011682018060405250810190610a7e91906116e5565b50905060007f000000000000000000000000000000000000000000000000000000000000000073ffffffffffffffffffffffffffffffffffffffff16639168ae72856040518263ffffffff1660e01b8152600401610adc9190611b37565b60806040518083038186803b158015610af457600080fd5b505afa158015610b08573d6000803e3d6000fd5b505050506040513d601f19601f82011682018060405250810190610b2c9190611721565b505050905060008183610b3f9190611f64565b905060007f000000000000000000000000000000000000000000000000000000000000000073ffffffffffffffffffffffffffffffffffffffff16633503eb546040518163ffffffff1660e01b815260040160206040518083038186803b158015610ba957600080fd5b505afa158015610bbd573d6000803e3d6000fd5b505050506040513d601f19601f82011682018060405250810190610be19190611619565b7f000000000000000000000000000000000000000000000000000000000000000073ffffffffffffffffffffffffffffffffffffffff1663817b1cd26040518163ffffffff1660e01b815260040160206040518083038186803b158015610c4757600080fd5b505afa158015610c5b573d6000803e3d6000fd5b505050506040513d601f19601f82011682018060405250810190610c7f9190611619565b7f000000000000000000000000000000000000000000000000000000000000000073ffffffffffffffffffffffffffffffffffffffff16635bda15846040518163ffffffff1660e01b815260040160206040518083038186803b158015610ce557600080fd5b505afa158015610cf9573d6000803e3d6000fd5b505050506040513d601f19601f82011682018060405250810190610d1d9190611619565b610d279190611f64565b610d319190611f64565b90506000811415610d49576000945050505050610d68565b80606483610d579190611feb565b610d619190611fba565b9450505050505b919050565b60006001600084815260200190815260200160002090508060010160009054906101000a900460ff16610dd5576040517f08c379a0000000000000000000000000000000000000000000000000000000008152600401610dcc90611d6d565b60405180910390fd5b8060090160003373ffffffffffffffffffffffffffffffffffffffff1673ffffffffffffffffffffffffffffffffffffffff16815260200190815260200160002060009054906101000a900460ff1615610e64576040517f08c379a0000000000000000000000000000000000000000000000000000000008152600401610e5b90611d0d565b60405180910390fd5b8060070154421115610eab576040517f08c379a0000000000000000000000000000000000000000000000000000000008152600401610ea290611d8d565b60405180910390fd5b6000610eb6336109d3565b905060008111610efb576040517f08c379a0000000000000000000000000000000000000000000000000000000008152600401610ef290611ced565b60405180910390fd5b8215610f3c5780826004016000828254610f159190611f64565b9250508190555080826000016000828254610f309190611ed0565b92505081905550610f73565b80826005016000828254610f509190611f64565b9250508190555080826000016000828254610f6b9190612045565b925050819055505b60018260090160003373ffffffffffffffffffffffffffffffffffffffff1673ffffffffffffffffffffffffffffffffffffffff16815260200190815260200160002060006101000a81548160ff0219169083151502179055503373ffffffffffffffffffffffffffffffffffffffff16847fd5fbdad2a4bb43b8c8ee1becc8085bb21684241593a04bf8795a83f56436b43d8584604051611016929190611b52565b60405180910390a350505050565b60005481565b7f000000000000000000000000000000000000000000000000000000000000000073ffffffffffffffffffffffffffffffffffffffff163373ffffffffffffffffffffffffffffffffffffffff16146110b8576040517f08c379a00000000000000000000000000000000000000000000000000000000081526004016110af90611dcd565b60405180910390fd5b8060028190555050565b60025481565b6203f48081565b7f000000000000000000000000000000000000000000000000000000000000000073ffffffffffffffffffffffffffffffffffffffff163373ffffffffffffffffffffffffffffffffffffffff161461115d576040517f08c379a000000000000000000000000000000000000000000000000000000000815260040161115490611ded565b60405180910390fd5b6001600084815260200190815260200160002060010160009054906101000a900460ff16156111c1576040517f08c379a00000000000000000000000000000000000000000000000000000000081526004016111b890611d2d565b60405180910390fd5b603c811015611205576040517f08c379a00000000000000000000000000000000000000000000000000000000081526004016111fc90611ccd565b60405180910390fd5b600080815480929190611217906121ed565b9190505550600060016000858152602001908152602001600020905060018160010160006101000a81548160ff02191690831515021790555081816002018190555082816003019080519060200190611271929190611468565b504281600601819055506202a3004261128a9190611f64565b816007018190555060008160080160006101000a81548160ff021916908315150217905550837f118e52e9c0377ebc5b1844997fda308b0ab28d0c8d702050e006fcdd56ffdd2c84844260006040516112e69493929190611c61565b60405180910390a250505050565b603381565b6000807f000000000000000000000000000000000000000000000000000000000000000073ffffffffffffffffffffffffffffffffffffffff1663817b1cd26040518163ffffffff1660e01b815260040160206040518083038186803b15801561136257600080fd5b505afa158015611376573d6000803e3d6000fd5b505050506040513d601f19601f8201168201806040525081019061139a9190611619565b7f000000000000000000000000000000000000000000000000000000000000000073ffffffffffffffffffffffffffffffffffffffff16635bda15846040518163ffffffff1660e01b815260040160206040518083038186803b15801561140057600080fd5b505afa158015611414573d6000803e3d6000fd5b505050506040513d601f19601f820116820180604052508101906114389190611619565b6114429190611f64565b90506033816114519190611feb565b60648461145e9190611feb565b1015915050919050565b828054611474906121bb565b90600052602060002090601f01602090048101928261149657600085556114dd565b82601f106114af57805160ff19168380011785556114dd565b828001600101855582156114dd579182015b828111156114dc5782518255916020019190600101906114c1565b5b5090506114ea91906114ee565b5090565b5b808211156115075760008160009055506001016114ef565b5090565b600061151e61151984611e79565b611e48565b90508281526020810184848401111561153657600080fd5b61154184828561214f565b509392505050565b60008135905061155881612303565b92915050565b60008135905061156d8161231a565b92915050565b600082601f83011261158457600080fd5b813561159484826020860161150b565b91505092915050565b6000813590506115ac81612331565b92915050565b6000815190506115c181612331565b92915050565b6000602082840312156115d957600080fd5b60006115e784828501611549565b91505092915050565b60006020828403121561160257600080fd5b60006116108482850161159d565b91505092915050565b60006020828403121561162b57600080fd5b6000611639848285016115b2565b91505092915050565b6000806040838503121561165557600080fd5b60006116638582860161159d565b92505060206116748582860161155e565b9150509250929050565b60008060006060848603121561169357600080fd5b60006116a18682870161159d565b935050602084013567ffffffffffffffff8111156116be57600080fd5b6116ca86828701611573565b92505060406116db8682870161159d565b9150509250925092565b600080604083850312156116f857600080fd5b6000611706858286016115b2565b9250506020611717858286016115b2565b9150509250929050565b6000806000806080858703121561173757600080fd5b6000611745878288016115b2565b9450506020611756878288016115b2565b9350506040611767878288016115b2565b9250506060611778878288016115b2565b91505092959194509250565b61178d816120d9565b82525050565b61179c816120eb565b82525050565b6117ab8161212b565b82525050565b6117ba816120f7565b82525050565b60006117cb82611ea9565b6117d58185611ebf565b93506117e581856020860161215e565b6117ee816122f2565b840191505092915050565b6000611806601683611ebf565b91507f414920636f6e666964656e636520746f6f2068696768000000000000000000006000830152602082019050919050565b6000611846601583611ebf565b91507f414920636f6e666964656e636520746f6f206c6f7700000000000000000000006000830152602082019050919050565b6000611886600f83611ebf565b91507f4e6f20766f74696e6720706f77657200000000000000000000000000000000006000830152602082019050919050565b60006118c6600d83611ebf565b91507f416c726561647920766f746564000000000000000000000000000000000000006000830152602082019050919050565b6000611906601783611ebf565b91507f50726f706f73616c20616c7265616479206578697374730000000000000000006000830152602082019050919050565b6000611946601383611ebf565b91507f466565207472616e73666572206661696c6564000000000000000000000000006000830152602082019050919050565b6000611986601783611ebf565b91507f50726f706f73616c20646f6573206e6f742065786973740000000000000000006000830152602082019050919050565b60006119c6601583611ebf565b91507f54696d656c6f636b20706572696f6420656e64656400000000000000000000006000830152602082019050919050565b6000611a06601283611ebf565b91507f54696d656c6f636b206e6f7420656e64656400000000000000000000000000006000830152602082019050919050565b6000611a46601583611ebf565b91507f4f6e6c7920706f6f6c2063616e207365742066656500000000000000000000006000830152602082019050919050565b6000611a86600083611eb4565b9150600082019050919050565b6000611aa0601e83611ebf565b91507f4f6e6c7920706f6f6c2063616e206372656174652070726f706f73616c7300006000830152602082019050919050565b6000611ae0601783611ebf565b91507f496e73756666696369656e742061707065616c206665650000000000000000006000830152602082019050919050565b611b1c81612121565b82525050565b6000611b2d82611a79565b9150819050919050565b6000602082019050611b4c6000830184611784565b92915050565b6000604082019050611b676000830185611793565b611b746020830184611b13565b9392505050565b6000606082019050611b906000830186611793565b611b9d6020830185611b13565b611baa6040830184611b13565b949350505050565b6000602082019050611bc760008301846117a2565b92915050565b600061012082019050611be3600083018c6117b1565b611bf0602083018b611793565b611bfd604083018a611b13565b8181036060830152611c0f81896117c0565b9050611c1e6080830188611b13565b611c2b60a0830187611b13565b611c3860c0830186611b13565b611c4560e0830185611b13565b611c53610100830184611793565b9a9950505050505050505050565b60006080820190508181036000830152611c7b81876117c0565b9050611c8a6020830186611b13565b611c976040830185611b13565b611ca46060830184611793565b95945050505050565b60006020820190508181036000830152611cc6816117f9565b9050919050565b60006020820190508181036000830152611ce681611839565b9050919050565b60006020820190508181036000830152611d0681611879565b9050919050565b60006020820190508181036000830152611d26816118b9565b9050919050565b60006020820190508181036000830152611d46816118f9565b9050919050565b60006020820190508181036000830152611d6681611939565b9050919050565b60006020820190508181036000830152611d8681611979565b9050919050565b60006020820190508181036000830152611da6816119b9565b9050919050565b60006020820190508181036000830152611dc6816119f9565b9050919050565b60006020820190508181036000830152611de681611a39565b9050919050565b60006020820190508181036000830152611e0681611a93565b9050919050565b60006020820190508181036000830152611e2681611ad3565b9050919050565b6000602082019050611e426000830184611b13565b92915050565b6000604051905081810181811067ffffffffffffffff82111715611e6f57611e6e6122c3565b5b8060405250919050565b600067ffffffffffffffff821115611e9457611e936122c3565b5b601f19601f8301169050602081019050919050565b600081519050919050565b600081905092915050565b600082825260208201905092915050565b6000611edb826120f7565b9150611ee6836120f7565b9250817f7fffffffffffffffffffffffffffffffffffffffffffffffffffffffffffffff03831360008312151615611f2157611f20612236565b5b817f8000000000000000000000000000000000000000000000000000000000000000038312600083121615611f5957611f58612236565b5b828201905092915050565b6000611f6f82612121565b9150611f7a83612121565b9250827fffffffffffffffffffffffffffffffffffffffffffffffffffffffffffffffff03821115611faf57611fae612236565b5b828201905092915050565b6000611fc582612121565b9150611fd083612121565b925082611fe057611fdf612265565b5b828204905092915050565b6000611ff682612121565b915061200183612121565b9250817fffffffffffffffffffffffffffffffffffffffffffffffffffffffffffffffff048311821515161561203a57612039612236565b5b828202905092915050565b6000612050826120f7565b915061205b836120f7565b9250827f80000000000000000000000000000000000000000000000000000000000000000182126000841215161561209657612095612236565b5b827f7fffffffffffffffffffffffffffffffffffffffffffffffffffffffffffffff0182136000841216156120ce576120cd612236565b5b828203905092915050565b60006120e482612101565b9050919050565b60008115159050919050565b6000819050919050565b600073ffffffffffffffffffffffffffffffffffffffff82169050919050565b6000819050919050565b60006121368261213d565b9050919050565b600061214882612101565b9050919050565b82818337600083830152505050565b60005b8381101561217c578082015181840152602081019050612161565b8381111561218b576000848401525b50505050565b600061219c82612121565b915060008214156121b0576121af612236565b5b600182039050919050565b600060028204905060018216806121d357607f821691505b602082108114156121e7576121e6612294565b5b50919050565b60006121f882612121565b91507fffffffffffffffffffffffffffffffffffffffffffffffffffffffffffffffff82141561222b5761222a612236565b5b600182019050919050565b7f4e487b7100000000000000000000000000000000000000000000000000000000600052601160045260246000fd5b7f4e487b7100000000000000000000000000000000000000000000000000000000600052601260045260246000fd5b7f4e487b7100000000000000000000000000000000000000000000000000000000600052602260045260246000fd5b7f4e487b7100000000000000000000000000000000000000000000000000000000600052604160045260246000fd5b6000601f19601f8301169050919050565b61230c816120d9565b811461231757600080fd5b50565b612323816120eb565b811461232e57600080fd5b50565b61233a81612121565b811461234557600080fd5b5056fea2646970667358221220effed77b527c9ba0ed15d8e761335e6d6c1411da93edf36079461be53f1e9f6a64736f6c63430008000033",
  "linkReferences": {},
  "deployedLinkReferences": {}
}