{
  "_format": "hh-sol-artifact-1",
  "contractName": "Pool",
  "sourceName": "contracts/Pool.sol",
  "abi": [
    {
      "anonymous": false,
      "inputs": [
        {
          "indexed": false,
          "internalType": "uint256",
          "name": "claimId",
          "type": "uint256"
        },
        {
          "indexed": true,
          "internalType": "address",
          "name": "claimant",
          "type": "address"
        },
        {
          "indexed": false,
          "internalType": "uint256",
          "name": "amount",
          "type": "uint256"
        }
      ],
      "name": "ClaimApproved",
      "type": "event"
    },
    {
      "anonymous": false,
      "inputs": [
        {
          "indexed": false,
          "internalType": "uint256",
          "name": "claimId",
          "type": "uint256"
        }
      ],
      "name": "ClaimCancelled",
      "type": "event"
    },
    {
      "anonymous": false,
      "inputs": [
        {
          "indexed": false,
          "internalType": "uint256",
          "name": "claimId",
          "type": "uint256"
        },
        {
          "indexed": true,
          "internalType": "address",
          "name": "claimant",
          "type": "address"
        },
        {
          "indexed": false,
          "internalType": "uint256",
          "name": "amount",
          "type": "uint256"
        },
        {
          "indexed": false,
          "internalType": "uint256",
          "name": "unlockTime",
          "type": "uint256"
        }
      ],
      "name": "ClaimInitiated",
      "type": "event"
    },
    {
      "anonymous": false,
      "inputs": [
        {
          "indexed": false,
          "internalType": "uint256",
          "name": "claimId",
          "type": "uint256"
        }
      ],
      "name": "ClaimRejected",
      "type": "event"
    },
    {
      "anonymous": false,
      "inputs": [
        {
          "indexed": true,
          "internalType": "address",
          "name": "user",
          "type": "address"
        },
        {
          "indexed": false,
          "internalType": "uint256",
          "name": "amount",
          "type": "uint256"
        }
      ],
      "name": "PremiumPaid",
      "type": "event"
    },
    {
      "anonymous": false,
      "inputs": [
        {
          "indexed": true,
          "internalType": "address",
          "name": "staker",
          "type": "address"
        },
        {
          "indexed": false,
          "internalType": "uint256",
          "name": "amount",
          "type": "uint256"
        },
        {
          "indexed": false,
          "internalType": "bool",
          "name": "interestEarned",
          "type": "bool"
        }
      ],
      "name": "StakeWithdrawn",
      "type": "event"
    },
    {
      "anonymous": false,
      "inputs": [
        {
          "indexed": true,
          "internalType": "address",
          "name": "staker",
          "type": "address"
        },
        {
          "indexed": false,
          "internalType": "uint256",
          "name": "amount",
          "type": "uint256"
        },
        {
          "indexed": false,
          "internalType": "uint256",
          "name": "lockTime",
          "type": "uint256"
        },
        {
          "indexed": false,
          "internalType": "uint256",
          "name": "duration",
          "type": "uint256"
        }
      ],
      "name": "TokensStaked",
      "type": "event"
    },
    {
      "inputs": [],
      "name": "CLAIM_TIME_LOCK",
      "outputs": [
        {
          "internalType": "uint256",
          "name": "",
          "type": "uint256"
        }
      ],
      "stateMutability": "view",
      "type": "function"
    },
    {
      "inputs": [],
      "name": "ONE_MONTH",
      "outputs": [
        {
          "internalType": "uint256",
          "name": "",
          "type": "uint256"
        }
      ],
      "stateMutability": "view",
      "type": "function"
    },
    {
      "inputs": [],
      "name": "ONE_MONTH_RATE",
      "outputs": [
        {
          "internalType": "uint256",
          "name": "",
          "type": "uint256"
        }
      ],
      "stateMutability": "view",
      "type": "function"
    },
    {
      "inputs": [],
      "name": "ONE_YEAR",
      "outputs": [
        {
          "internalType": "uint256",
          "name": "",
          "type": "uint256"
        }
      ],
      "stateMutability": "view",
      "type": "function"
    },
    {
      "inputs": [],
      "name": "ONE_YEAR_RATE",
      "outputs": [
        {
          "internalType": "uint256",
          "name": "",
          "type": "uint256"
        }
      ],
      "stateMutability": "view",
      "type": "function"
    },
    {
      "inputs": [],
      "name": "SIX_MONTHS",
      "outputs": [
        {
          "internalType": "uint256",
          "name": "",
          "type": "uint256"
        }
      ],
      "stateMutability": "view",
      "type": "function"
    },
    {
      "inputs": [],
      "name": "SIX_MONTHS_RATE",
      "outputs": [
        {
          "internalType": "uint256",
          "name": "",
          "type": "uint256"
        }
      ],
      "stateMutability": "view",
      "type": "function"
    },
    {
      "inputs": [
        {
          "internalType": "uint256",
          "name": "claimId",
          "type": "uint256"
        }
      ],
      "name": "approveClaim",
      "outputs": [],
      "stateMutability": "nonpayable",
      "type": "function"
    },
    {
      "inputs": [
        {
          "internalType": "uint256",
          "name": "claimId",
          "type": "uint256"
        }
      ],
      "name": "cancelClaim",
      "outputs": [],
      "stateMutability": "nonpayable",
      "type": "function"
    },
    {
      "inputs": [],
      "name": "claimCounter",
      "outputs": [
        {
          "internalType": "uint256",
          "name": "",
          "type": "uint256"
        }
      ],
      "stateMutability": "view",
      "type": "function"
    },
    {
      "inputs": [
        {
          "internalType": "uint256",
          "name": "",
          "type": "uint256"
        }
      ],
      "name": "claims",
      "outputs": [
        {
          "internalType": "address",
          "name": "claimant",
          "type": "address"
        },
        {
          "internalType": "uint256",
          "name": "amount",
          "type": "uint256"
        },
        {
          "internalType": "uint256",
          "name": "unlockTime",
          "type": "uint256"
        },
        {
          "internalType": "enum Pool.ClaimStatus",
          "name": "status",
          "type": "uint8"
        },
        {
          "internalType": "bool",
          "name": "exists",
          "type": "bool"
        }
      ],
      "stateMutability": "view",
      "type": "function"
    },
    {
      "inputs": [
        {
          "internalType": "uint256",
          "name": "duration",
          "type": "uint256"
        }
      ],
      "name": "getInterestRate",
      "outputs": [
        {
          "internalType": "uint256",
          "name": "",
          "type": "uint256"
        }
      ],
      "stateMutability": "pure",
      "type": "function"
    },
    {
      "inputs": [
        {
          "internalType": "address",
          "name": "claimant",
          "type": "address"
        },
        {
          "internalType": "uint256",
          "name": "amount",
          "type": "uint256"
        }
      ],
      "name": "initiateClaim",
      "outputs": [
        {
          "internalType": "uint256",
          "name": "",
          "type": "uint256"
        }
      ],
      "stateMutability": "nonpayable",
      "type": "function"
    },
    {
      "inputs": [
        {
          "internalType": "uint256",
          "name": "amount",
          "type": "uint256"
        }
      ],
      "name": "payPremium",
      "outputs": [],
      "stateMutability": "nonpayable",
      "type": "function"
    },
    {
      "inputs": [
        {
          "internalType": "address",
          "name": "",
          "type": "address"
        }
      ],
      "name": "premiumsPaid",
      "outputs": [
        {
          "internalType": "uint256",
          "name": "",
          "type": "uint256"
        }
      ],
      "stateMutability": "view",
      "type": "function"
    },
    {
      "inputs": [
        {
          "internalType": "uint256",
          "name": "claimId",
          "type": "uint256"
        }
      ],
      "name": "rejectClaim",
      "outputs": [],
      "stateMutability": "nonpayable",
      "type": "function"
    },
    {
      "inputs": [
        {
          "internalType": "uint256",
          "name": "amount",
          "type": "uint256"
        },
        {
          "internalType": "uint256",
          "name": "duration",
          "type": "uint256"
        }
      ],
      "name": "stakeTokens",
      "outputs": [],
      "stateMutability": "nonpayable",
      "type": "function"
    },
    {
      "inputs": [
        {
          "internalType": "address",
          "name": "",
          "type": "address"
        }
      ],
      "name": "stakers",
      "outputs": [
        {
          "internalType": "uint256",
          "name": "balance",
          "type": "uint256"
        },
        {
          "internalType": "uint256",
          "name": "lastStakeTime",
          "type": "uint256"
        },
        {
          "internalType": "uint256",
          "name": "lockDuration",
          "type": "uint256"
        }
      ],
      "stateMutability": "view",
      "type": "function"
    },
    {
      "inputs": [],
      "name": "totalPremiums",
      "outputs": [
        {
          "internalType": "uint256",
          "name": "",
          "type": "uint256"
        }
      ],
      "stateMutability": "view",
      "type": "function"
    },
    {
      "inputs": [],
      "name": "totalStaked",
      "outputs": [
        {
          "internalType": "uint256",
          "name": "",
          "type": "uint256"
        }
      ],
      "stateMutability": "view",
      "type": "function"
    },
    {
      "inputs": [
        {
          "internalType": "uint256",
          "name": "amount",
          "type": "uint256"
        }
      ],
      "name": "withdrawStake",
      "outputs": [],
      "stateMutability": "nonpayable",
      "type": "function"
    }
  ],
  "bytecode": "0x608060405234801561001057600080fd5b50611d35806100206000396000f3fe608060405234801561001057600080fd5b50600436106101375760003560e01c80634efa8f17116100b8578063973a23f51161007c578063973a23f51461032c5780639dc5e02f1461034a578063a888c2cd14610366578063ae00d1841461039a578063ba579c74146103ca578063eb72f066146103e857610137565b80634efa8f17146102825780635bda1584146102a05780637c11060c146102be578063817b1cd2146102dc5780639168ae72146102fa57610137565b806325d5971f116100ff57806325d5971f146101e2578063293e571c146101fe5780633b7b61881461022e5780634364b26e1461024a57806346e301351461026657610137565b80630c196a741461013c57806310bfa4da1461016c57806316d3bfbb1461018a57806320341101146101a857806320988cef146101c4575b600080fd5b610156600480360381019061015191906114b0565b610406565b60405161016391906119b0565b60405180910390f35b61017461044f565b60405161018191906119b0565b60405180910390f35b610192610456565b60405161019f91906119b0565b60405180910390f35b6101c260048036038101906101bd91906114b0565b61045e565b005b6101cc6106a4565b6040516101d991906119b0565b60405180910390f35b6101fc60048036038101906101f791906114b0565b6106ab565b005b6102186004803603810190610213919061144b565b610927565b60405161022591906119b0565b60405180910390f35b610248600480360381019061024391906114d9565b61093f565b005b610264600480360381019061025f91906114b0565b610b49565b005b610280600480360381019061027b91906114b0565b610c4b565b005b61028a610ef3565b60405161029791906119b0565b60405180910390f35b6102a8610ef9565b6040516102b591906119b0565b60405180910390f35b6102c6610eff565b6040516102d391906119b0565b60405180910390f35b6102e4610f04565b6040516102f191906119b0565b60405180910390f35b610314600480360381019061030f919061144b565b610f0a565b60405161032393929190611a1d565b60405180910390f35b610334610f34565b60405161034191906119b0565b60405180910390f35b610364600480360381019061035f91906114b0565b610f39565b005b610380600480360381019061037b91906114b0565b6110f3565b60405161039195949392919061181d565b60405180910390f35b6103b460048036038101906103af9190611474565b611163565b6040516103c191906119b0565b60405180910390f35b6103d2611415565b6040516103df91906119b0565b60405180910390f35b6103f061141c565b6040516103fd91906119b0565b60405180910390f35b600062278d0082141561041c576003905061044a565b62ed4e00821415610430576014905061044a565b6301e13380821415610445576032905061044a565b600090505b919050565b6202a30081565b6301e1338081565b60006002600083815260200190815260200160002090508060030160019054906101000a900460ff166104c6576040517f08c379a00000000000000000000000000000000000000000000000000000000081526004016104bd90611990565b60405180910390fd5b60006003811115610500577f4e487b7100000000000000000000000000000000000000000000000000000000600052602160045260246000fd5b8160030160009054906101000a900460ff16600381111561054a577f4e487b7100000000000000000000000000000000000000000000000000000000600052602160045260246000fd5b14806105d757506001600381111561058b577f4e487b7100000000000000000000000000000000000000000000000000000000600052602160045260246000fd5b8160030160009054906101000a900460ff1660038111156105d5577f4e487b7100000000000000000000000000000000000000000000000000000000600052602160045260246000fd5b145b610616576040517f08c379a000000000000000000000000000000000000000000000000000000000815260040161060d90611970565b60405180910390fd5b60038160030160006101000a81548160ff02191690836003811115610664577f4e487b7100000000000000000000000000000000000000000000000000000000600052602160045260246000fd5b02179055507f2aa44a1bb19392ef6a2fd220d2b1649a6dc1bebbfa2a6f2c496e2d39a3339d0e8260405161069891906119b0565b60405180910390a15050565b62278d0081565b600081116106ee576040517f08c379a00000000000000000000000000000000000000000000000000000000081526004016106e5906118d0565b60405180910390fd5b80600160003373ffffffffffffffffffffffffffffffffffffffff1673ffffffffffffffffffffffffffffffffffffffff168152602001908152602001600020600001541015610773576040517f08c379a000000000000000000000000000000000000000000000000000000000815260040161076a906118f0565b60405180910390fd5b6000600160003373ffffffffffffffffffffffffffffffffffffffff1673ffffffffffffffffffffffffffffffffffffffff16815260200190815260200160002090506000816002015482600101546107cc9190611a65565b4210159050801561089c5760006107e68360020154610406565b905060006103e882866107f99190611aec565b6108039190611abb565b9050848460000160008282546108199190611b46565b9250508190555084600560008282546108329190611b46565b925050819055503373ffffffffffffffffffffffffffffffffffffffff167fd5f2084c75f17274c06aaf0305d40af0c68144bc40b485a1a6f52b08e05d672c828761087d9190611a65565b600160405161088d9291906119cb565b60405180910390a25050610922565b828260000160008282546108b09190611b46565b9250508190555082600560008282546108c99190611b46565b925050819055503373ffffffffffffffffffffffffffffffffffffffff167fd5f2084c75f17274c06aaf0305d40af0c68144bc40b485a1a6f52b08e05d672c8460006040516109199291906119cb565b60405180910390a25b505050565b60006020528060005260406000206000915090505481565b60008211610982576040517f08c379a0000000000000000000000000000000000000000000000000000000008152600401610979906118d0565b60405180910390fd5b62278d00811480610995575062ed4e0081145b806109a357506301e1338081145b6109e2576040517f08c379a00000000000000000000000000000000000000000000000000000000081526004016109d990611890565b60405180910390fd5b81600160003373ffffffffffffffffffffffffffffffffffffffff1673ffffffffffffffffffffffffffffffffffffffff1681526020019081526020016000206000016000828254610a349190611a65565b9250508190555042600160003373ffffffffffffffffffffffffffffffffffffffff1673ffffffffffffffffffffffffffffffffffffffff1681526020019081526020016000206001018190555080600160003373ffffffffffffffffffffffffffffffffffffffff1673ffffffffffffffffffffffffffffffffffffffff168152602001908152602001600020600201819055508160056000828254610adb9190611a65565b9250508190555060008142610af09190611a65565b90503373ffffffffffffffffffffffffffffffffffffffff167f0fc5b1bac0416800b42a669229a346b6e5a15db3896339dbdc5fa376e1e4570a848385604051610b3c93929190611a1d565b60405180910390a2505050565b60008111610b8c576040517f08c379a0000000000000000000000000000000000000000000000000000000008152600401610b83906118d0565b60405180910390fd5b806000803373ffffffffffffffffffffffffffffffffffffffff1673ffffffffffffffffffffffffffffffffffffffff1681526020019081526020016000206000828254610bda9190611a65565b925050819055508060046000828254610bf39190611a65565b925050819055503373ffffffffffffffffffffffffffffffffffffffff167fa21795436a9f6a3b412fd6780f01a49907f2181e76e938496b0a41991d99b61c82604051610c4091906119b0565b60405180910390a250565b60006002600083815260200190815260200160002090508060030160019054906101000a900460ff16610cb3576040517f08c379a0000000000000000000000000000000000000000000000000000000008152600401610caa90611990565b60405180910390fd5b8060020154421015610cfa576040517f08c379a0000000000000000000000000000000000000000000000000000000008152600401610cf190611910565b60405180910390fd5b60006003811115610d34577f4e487b7100000000000000000000000000000000000000000000000000000000600052602160045260246000fd5b8160030160009054906101000a900460ff166003811115610d7e577f4e487b7100000000000000000000000000000000000000000000000000000000600052602160045260246000fd5b14610dbe576040517f08c379a0000000000000000000000000000000000000000000000000000000008152600401610db590611870565b60405180910390fd5b60028160030160006101000a81548160ff02191690836003811115610e0c577f4e487b7100000000000000000000000000000000000000000000000000000000600052602160045260246000fd5b021790555080600101546004541015610e5a576040517f08c379a0000000000000000000000000000000000000000000000000000000008152600401610e5190611950565b60405180910390fd5b806001015460046000828254610e709190611b46565b925050819055508060000160009054906101000a900473ffffffffffffffffffffffffffffffffffffffff1673ffffffffffffffffffffffffffffffffffffffff167f0b582d60859bb6c5e17bb049bc83044c0c8dab7d0a026b4e3a4a2966d8926de5838360010154604051610ee79291906119f4565b60405180910390a25050565b60035481565b60045481565b600381565b60055481565b60016020528060005260406000206000915090508060000154908060010154908060020154905083565b603281565b60006002600083815260200190815260200160002090508060030160019054906101000a900460ff16610fa1576040517f08c379a0000000000000000000000000000000000000000000000000000000008152600401610f9890611990565b60405180910390fd5b60006003811115610fdb577f4e487b7100000000000000000000000000000000000000000000000000000000600052602160045260246000fd5b8160030160009054906101000a900460ff166003811115611025577f4e487b7100000000000000000000000000000000000000000000000000000000600052602160045260246000fd5b14611065576040517f08c379a000000000000000000000000000000000000000000000000000000000815260040161105c90611930565b60405180910390fd5b60038160030160006101000a81548160ff021916908360038111156110b3577f4e487b7100000000000000000000000000000000000000000000000000000000600052602160045260246000fd5b02179055507ff8f46e0bf4fa4cf9cdb8912b0c1ab803aab271224f1b6528a5e0ffb4e47dbe9a826040516110e791906119b0565b60405180910390a15050565b60026020528060005260406000206000915090508060000160009054906101000a900473ffffffffffffffffffffffffffffffffffffffff16908060010154908060020154908060030160009054906101000a900460ff16908060030160019054906101000a900460ff16905085565b60008082116111a7576040517f08c379a000000000000000000000000000000000000000000000000000000000815260040161119e906118d0565b60405180910390fd5b60008060008573ffffffffffffffffffffffffffffffffffffffff1673ffffffffffffffffffffffffffffffffffffffff1681526020019081526020016000205411611228576040517f08c379a000000000000000000000000000000000000000000000000000000000815260040161121f906118b0565b60405180910390fd5b60006202a300426112399190611a65565b90506003600081548092919061124e90611be7565b91905055506040518060a001604052808573ffffffffffffffffffffffffffffffffffffffff168152602001848152602001828152602001600060038111156112c0577f4e487b7100000000000000000000000000000000000000000000000000000000600052602160045260246000fd5b81526020016001151581525060026000600354815260200190815260200160002060008201518160000160006101000a81548173ffffffffffffffffffffffffffffffffffffffff021916908373ffffffffffffffffffffffffffffffffffffffff160217905550602082015181600101556040820151816002015560608201518160030160006101000a81548160ff0219169083600381111561138d577f4e487b7100000000000000000000000000000000000000000000000000000000600052602160045260246000fd5b021790555060808201518160030160016101000a81548160ff0219169083151502179055509050508373ffffffffffffffffffffffffffffffffffffffff167f71ff223735f5c17abc78079d9d3964bbaca264a125a6602b76a79c1418d1eaad600354858460405161140193929190611a1d565b60405180910390a260035491505092915050565b62ed4e0081565b601481565b60008135905061143081611cd1565b92915050565b60008135905061144581611ce8565b92915050565b60006020828403121561145d57600080fd5b600061146b84828501611421565b91505092915050565b6000806040838503121561148757600080fd5b600061149585828601611421565b92505060206114a685828601611436565b9150509250929050565b6000602082840312156114c257600080fd5b60006114d084828501611436565b91505092915050565b600080604083850312156114ec57600080fd5b60006114fa85828601611436565b925050602061150b85828601611436565b9150509250929050565b61151e81611b7a565b82525050565b61152d81611b8c565b82525050565b61153c81611bd5565b82525050565b600061154f601c83611a54565b91507f436c61696d206e6f7420696e2074696d656c6f636b20737461747573000000006000830152602082019050919050565b600061158f601083611a54565b91507f496e76616c6964206475726174696f6e000000000000000000000000000000006000830152602082019050919050565b60006115cf602b83611a54565b91507f55736572206d757374207061792061207072656d69756d20746f20696e69746960008301527f617465206120636c61696d0000000000000000000000000000000000000000006020830152604082019050919050565b6000611635602083611a54565b91507f416d6f756e74206d7573742062652067726561746572207468616e207a65726f6000830152602082019050919050565b6000611675601483611a54565b91507f496e73756666696369656e742062616c616e63650000000000000000000000006000830152602082019050919050565b60006116b5601a83611a54565b91507f436c61696d206973207374696c6c20696e2074696d656c6f636b0000000000006000830152602082019050919050565b60006116f5602783611a54565b91507f436c61696d2063616e6e6f742062652063616e63656c6c65642061742074686960008301527f73207374616765000000000000000000000000000000000000000000000000006020830152604082019050919050565b600061175b601e83611a54565b91507f496e73756666696369656e742066756e647320696e2074686520706f6f6c00006000830152602082019050919050565b600061179b601883611a54565b91507f436c61696d2063616e6e6f742062652072656a656374656400000000000000006000830152602082019050919050565b60006117db601483611a54565b91507f436c61696d20646f6573206e6f742065786973740000000000000000000000006000830152602082019050919050565b61181781611bcb565b82525050565b600060a0820190506118326000830188611515565b61183f602083018761180e565b61184c604083018661180e565b6118596060830185611533565b6118666080830184611524565b9695505050505050565b6000602082019050818103600083015261188981611542565b9050919050565b600060208201905081810360008301526118a981611582565b9050919050565b600060208201905081810360008301526118c9816115c2565b9050919050565b600060208201905081810360008301526118e981611628565b9050919050565b6000602082019050818103600083015261190981611668565b9050919050565b60006020820190508181036000830152611929816116a8565b9050919050565b60006020820190508181036000830152611949816116e8565b9050919050565b600060208201905081810360008301526119698161174e565b9050919050565b600060208201905081810360008301526119898161178e565b9050919050565b600060208201905081810360008301526119a9816117ce565b9050919050565b60006020820190506119c5600083018461180e565b92915050565b60006040820190506119e0600083018561180e565b6119ed6020830184611524565b9392505050565b6000604082019050611a09600083018561180e565b611a16602083018461180e565b9392505050565b6000606082019050611a32600083018661180e565b611a3f602083018561180e565b611a4c604083018461180e565b949350505050565b600082825260208201905092915050565b6000611a7082611bcb565b9150611a7b83611bcb565b9250827fffffffffffffffffffffffffffffffffffffffffffffffffffffffffffffffff03821115611ab057611aaf611c30565b5b828201905092915050565b6000611ac682611bcb565b9150611ad183611bcb565b925082611ae157611ae0611c5f565b5b828204905092915050565b6000611af782611bcb565b9150611b0283611bcb565b9250817fffffffffffffffffffffffffffffffffffffffffffffffffffffffffffffffff0483118215151615611b3b57611b3a611c30565b5b828202905092915050565b6000611b5182611bcb565b9150611b5c83611bcb565b925082821015611b6f57611b6e611c30565b5b828203905092915050565b6000611b8582611bab565b9050919050565b60008115159050919050565b6000819050611ba682611cbd565b919050565b600073ffffffffffffffffffffffffffffffffffffffff82169050919050565b6000819050919050565b6000611be082611b98565b9050919050565b6000611bf282611bcb565b91507fffffffffffffffffffffffffffffffffffffffffffffffffffffffffffffffff821415611c2557611c24611c30565b5b600182019050919050565b7f4e487b7100000000000000000000000000000000000000000000000000000000600052601160045260246000fd5b7f4e487b7100000000000000000000000000000000000000000000000000000000600052601260045260246000fd5b7f4e487b7100000000000000000000000000000000000000000000000000000000600052602160045260246000fd5b60048110611cce57611ccd611c8e565b5b50565b611cda81611b7a565b8114611ce557600080fd5b50565b611cf181611bcb565b8114611cfc57600080fd5b5056fea26469706673582212209bfe5e6a10405b2337b8f87556fbb9fa714a15079377e92f3f53f61f5dde513064736f6c63430008000033",
  "linkReferences": {},
  "deployedLinkReferences": {}
}